:020000040800F2
:1000000000000120B90800080909000809090008D2
:100010000909000809090008090900080000000092
:1000200000000000000000000000000009090008B6
:100030000909000800000000090900080909000872
:100040000909000809090008090900080909000848
:100050000909000809090008090900080909000838
:100060000909000809090008090900080909000828
:100070000909000809090008090900080909000818
:100080000909000809090008090900080000000022
:100090000000000000000000000000000909000846
:1000A00009090008090900080909000809090008E8
:1000B00009090008090900080909000809090008D8
:1000C00009090008090900080909000809090008C8
:1000D00009090008090900080909000800000000D2
:1000E00009090008090900080909000800000000C2
:1000F00000000000000000000000000009090008E6
:1001000000000000090900080909000809090008A1
:1001100000000000000000000000000000000000DF
:10012000CD070008090900080909000809090008A5
:1001300009090008000000000000000000000000A5
:100140000000000000000000000000000909000895
:100150000909000809090008090900080909000837
:10016000090900080909000800000000000000005B
:10017000000000000000000000000000000000007F
:100180000000000009090008000000000000000055
:040190000909000851
:1001940010B5054C237833B9044B13B10448AFF3BD
:1001A40000800123237010BD3400002000000000F3
:1001B4005409000808B5034B1BB103490348AFF3C6
:1001C400008008BD00000000380000205409000829
:1001D40080B400AF054B1B68044A43F480031360EA
:1001E40000BFBD465DF8047B704700BF3038024055
:1001F40080B485B000AFB9607A601A460346FB73D9
:100204001346BB81504B1B684F4A23F06063136055
:100214004D4B1B68FA7B520611464B4A0B43136045
:10022400494B1B68484A23F0C0731360464B1B6854
:1002340097F82020D2051146434A0B431360424BE2
:100244001B68414A23F4C00313603F4B1B6897F8B3
:100254002020520511463C4A0B4313603A4B1B685D
:10026400394A43F440331360374B1B68364A23F44E
:1002740000431360344B1B68334A23F4C0431360B8
:10028400314B1B683A7E520311462F4A0B431360CD
:100294002D4B1B682C4A23F4C05313602A4B1B6854
:1002A4003A7ED2021146284A0B431360264B1B6840
:1002B400254A43F480631360234B1B68224A43F4AA
:1002C40000731360204B1B681F4A23F0C0031360A4
:1002D4001D4B1B683A7F920111461B4A0B43136066
:1002E400194B1B68184A43F010031360174B002284
:1002F4001A60164B1A68BB89144913430B60144BDC
:1003040000221A60124ABB681360124B00221A6062
:10031400104A7B681360104B1B680F4A43F00403B8
:1003240013600D4B1B680C4A23F0030313600A4B44
:100334001B68094A43F00103136000BF1437BD462C
:100344005DF8047B704700BF1064024014640240EF
:10035400186402401C6402402464024080B400AF6C
:10036400094B4FF0FF321A60084B4FF0FF321A600E
:10037400074B1B68064A43F00103136000BFBD46E8
:100384005DF8047B704700BF086402400C640240BF
:100394001064024080B483B000AF074B1B685B0954
:1003A400DBB203F00103FB71FB7918460C37BD4641
:1003B4005DF8047B704700BF0064024080B400AF66
:1003C400054B1B68044A43F02003136000BFBD467D
:1003D4005DF8047B704700BF0864024080B483B0BA
:1003E40000AF0346FB71084B1B68FA79012101FA3F
:1003F40002F21146044A0B43136000BF0C37BD469A
:100404005DF8047B704700BF3038024090B482B07E
:1004140000AF0446084611461A462346FB710346BC
:10042400BB710B467B7113463B71FB79464A52F80C
:1004340023301B68BA795200032101FA02F2D24335
:100444001046FA79404951F8222003401360FB79A1
:100454003D4A52F823301B687979BA79520001FA7F
:1004640002F21046FA79384951F822200343136006
:10047400FB79354A52F8233004331B68BA790121D9
:1004840001FA02F2D2431046FA792F4951F8222098
:10049400043203401360FB792B4A52F823300433AF
:1004A4001B683A7902F00101BA7901FA02F21046A6
:1004B400FA79254951F82220043203431360FB7969
:1004C400214A52F823300C331B68BA7952000321B5
:1004D40001FA02F2D2431046FA791B4951F822205C
:1004E4000C3203401360FB79174A52F823300C3363
:1004F4001B683A79521002F00301BA79520001FAEA
:1005040002F21046FA79104951F822200C320343C2
:1005140013607B79022B12D1FB790B4A52F82330FA
:1005240020331B68BA799200072101FA02F21046BF
:10053400FA79054951F8222020320343136000BFA1
:100544000837BD4690BC70470000002080B485B0D9
:1005540000AF0346FB710B46BB7113467B71FB79FD
:10056400224A52F823301B68BA795200032101FA57
:1005740002F21A40BB795B0022FA03F3012B2BD160
:100584007B79002B12D0FB79184A52F823301433AC
:100594001B68BA79012101FA02F21046FA7913496B
:1005A40051F8222014320343136012E0FB790F4AFE
:1005B40052F8233014331B68BA79012101FA02F28C
:1005C400D2431046FA79094951F8222014320340E3
:1005D40013600023FB7301E00123FB73FB7B1846CC
:1005E4001437BD465DF8047B704700BF000000204F
:1005F40080B400AF054B1B68044A43F40033136016
:1006040000BFBD465DF8047B704700BF4038024020
:1006140080B400AF124B1B68114A43F400531360BB
:100624000F4B1B680E4A23F4805313600C4B1B685A
:100634000B4A43F0080313600A4B1B68094A43F44E
:10064400D06343F002031360074B1B68064A23F48C
:100654004053136000BFBD465DF8047B704700BF84
:100664000C440040084400401044004080B483B06F
:1006740000AF0346FB71094B1B68084A23F0FF03D4
:100684001360064B1A68FB79044913430B6000BFDF
:100694000C37BD465DF8047B704700BF044400403E
:1006A40080B483B000AF074B1B689B09DBB203F037
:1006B4000103FB71FB7918460C37BD465DF8047BDA
:1006C400704700BF0044004080B400AF054B1B6876
:1006D400044A23F04003136000BFBD465DF8047B69
:1006E400704700BF0044004080B483B000AF0346AD
:1006F4000A46FB711346BB71FB790F4A52F823304B
:1007040003F1604303F561431A68BB79012101FADF
:1007140003F31846FB79084951F8233003F1604389
:1007240003F56143194642EA00030B6000BF0C372E
:10073400BD465DF8047B70470800002080B586B094
:1007440004AF0020FFF74AFE00230122002100200D
:10075400FFF75CFE0023022202210020FFF756FE71
:10076400FFF746FF00237B6011E07B6801336422BE
:1007740002FB03F31946124A7B6842F82310114A1C
:100784007B68002142F823107B6801337B607B681F
:10079400632BEADDFFF71CFD002302930223019380
:1007A400022300936423074A05490020FFF720FD34
:1007B400FFF7D4FD18210120FFF796FFFEE700BFE5
:1007C40050000020E001002080B582B000AFFFF7A8
:1007D400E1FD0346FB71FB79002B0CD0084BD3F8E9
:1007E4008C31DBB21A4600210020FFF7AFFE00F087
:1007F40009F8FFF7E3FD00BF0837BD4680BD00BF21
:10080400E001002080B582B000AFFFF701FF232391
:100814003B6000237B6014E00F4A7B6813441B7821
:100824001846FFF723FF00BFFFF73AFF0346002BEC
:10083400FAD0FFF749FF012000F010F87B6801337C
:100844007B603B685A1E7B689A42E5D800BF00BFB4
:100854000837BD4680BD00BF1000002080B485B0BD
:1008640000AF78600023FB6002E0FB680133FB60AB
:100874007B684FF47A7202FB03F31A46FB689342D7
:10088400F3D300BF00BF1437BD465DF8047B704747
:1008940080B400AF064BD3F88830054A43F47003A4
:1008A400C2F8883000BFBD465DF8047B704700BFC6
:1008B40000ED00E0DFF834D00D480E490E4A002365
:1008C40002E0D458C4500433C4188C42F9D30B4A00
:1008D4000B4C002301E013600432A242FBD3FFF768
:1008E400D7FF00F011F8FFF729FF7047000001203F
:1008F40000000020340000207409000834000020A7
:1009040070030020FEE7000070B50D4D0D4C641B14
:10091400A4100026A64209D10B4D0C4C00F018F887
:10092400641BA4100026A64205D170BD55F8043BF3
:1009340098470136EEE755F8043B98470136F2E74D
:100944006C0900086C0900086C09000870090008AB
:10095400F8B500BFF8BC08BC9E467047F8B500BFA8
:08096400F8BC08BC9E46704778
:04096C00B9010008C5
:0409700095010008E5
:1009740000000240000402400000000004000000E7
:100984004D656D6F727920746F204D656D6F72794E
:10099400207472616E7366657220697320646F6E71
:0409A40065210000C9
:04000005080008B92E
:00000001FF
